{
  "_format": "hh-sol-artifact-1",
  "contractName": "ArchiveMarket",
  "sourceName": "contracts/ArchiveMarket.sol",
  "abi": [
    {
      "inputs": [],
      "stateMutability": "nonpayable",
      "type": "constructor"
    },
    {
      "anonymous": false,
      "inputs": [
        {
          "indexed": true,
          "internalType": "address",
          "name": "owner",
          "type": "address"
        },
        {
          "indexed": true,
          "internalType": "address",
          "name": "approved",
          "type": "address"
        },
        {
          "indexed": true,
          "internalType": "uint256",
          "name": "tokenId",
          "type": "uint256"
        }
      ],
      "name": "Approval",
      "type": "event"
    },
    {
      "anonymous": false,
      "inputs": [
        {
          "indexed": true,
          "internalType": "address",
          "name": "owner",
          "type": "address"
        },
        {
          "indexed": true,
          "internalType": "address",
          "name": "operator",
          "type": "address"
        },
        {
          "indexed": false,
          "internalType": "bool",
          "name": "approved",
          "type": "bool"
        }
      ],
      "name": "ApprovalForAll",
      "type": "event"
    },
    {
      "anonymous": false,
      "inputs": [
        {
          "indexed": false,
          "internalType": "uint256",
          "name": "tokenId",
          "type": "uint256"
        },
        {
          "indexed": false,
          "internalType": "address",
          "name": "from",
          "type": "address"
        },
        {
          "indexed": false,
          "internalType": "address",
          "name": "to",
          "type": "address"
        },
        {
          "indexed": false,
          "internalType": "string",
          "name": "tokenURI",
          "type": "string"
        },
        {
          "indexed": false,
          "internalType": "uint256",
          "name": "price",
          "type": "uint256"
        }
      ],
      "name": "NFTTransfer",
      "type": "event"
    },
    {
      "anonymous": false,
      "inputs": [
        {
          "indexed": true,
          "internalType": "address",
          "name": "previousOwner",
          "type": "address"
        },
        {
          "indexed": true,
          "internalType": "address",
          "name": "newOwner",
          "type": "address"
        }
      ],
      "name": "OwnershipTransferred",
      "type": "event"
    },
    {
      "anonymous": false,
      "inputs": [
        {
          "indexed": true,
          "internalType": "address",
          "name": "from",
          "type": "address"
        },
        {
          "indexed": true,
          "internalType": "address",
          "name": "to",
          "type": "address"
        },
        {
          "indexed": true,
          "internalType": "uint256",
          "name": "tokenId",
          "type": "uint256"
        }
      ],
      "name": "Transfer",
      "type": "event"
    },
    {
      "inputs": [
        {
          "internalType": "address",
          "name": "to",
          "type": "address"
        },
        {
          "internalType": "uint256",
          "name": "tokenId",
          "type": "uint256"
        }
      ],
      "name": "approve",
      "outputs": [],
      "stateMutability": "nonpayable",
      "type": "function"
    },
    {
      "inputs": [
        {
          "internalType": "address",
          "name": "owner",
          "type": "address"
        }
      ],
      "name": "balanceOf",
      "outputs": [
        {
          "internalType": "uint256",
          "name": "",
          "type": "uint256"
        }
      ],
      "stateMutability": "view",
      "type": "function"
    },
    {
      "inputs": [
        {
          "internalType": "uint256",
          "name": "tokenId",
          "type": "uint256"
        }
      ],
      "name": "cancelListing",
      "outputs": [],
      "stateMutability": "nonpayable",
      "type": "function"
    },
    {
      "inputs": [
        {
          "internalType": "string",
          "name": "tokenURI",
          "type": "string"
        }
      ],
      "name": "createNFT",
      "outputs": [],
      "stateMutability": "nonpayable",
      "type": "function"
    },
    {
      "inputs": [
        {
          "internalType": "uint256",
          "name": "tokenId",
          "type": "uint256"
        }
      ],
      "name": "getApproved",
      "outputs": [
        {
          "internalType": "address",
          "name": "",
          "type": "address"
        }
      ],
      "stateMutability": "view",
      "type": "function"
    },
    {
      "inputs": [
        {
          "internalType": "address",
          "name": "owner",
          "type": "address"
        },
        {
          "internalType": "address",
          "name": "operator",
          "type": "address"
        }
      ],
      "name": "isApprovedForAll",
      "outputs": [
        {
          "internalType": "bool",
          "name": "",
          "type": "bool"
        }
      ],
      "stateMutability": "view",
      "type": "function"
    },
    {
      "inputs": [
        {
          "internalType": "uint256",
          "name": "tokenId",
          "type": "uint256"
        },
        {
          "internalType": "uint256",
          "name": "price",
          "type": "uint256"
        }
      ],
      "name": "listNFT",
      "outputs": [],
      "stateMutability": "nonpayable",
      "type": "function"
    },
    {
      "inputs": [],
      "name": "name",
      "outputs": [
        {
          "internalType": "string",
          "name": "",
          "type": "string"
        }
      ],
      "stateMutability": "view",
      "type": "function"
    },
    {
      "inputs": [],
      "name": "owner",
      "outputs": [
        {
          "internalType": "address",
          "name": "",
          "type": "address"
        }
      ],
      "stateMutability": "view",
      "type": "function"
    },
    {
      "inputs": [
        {
          "internalType": "uint256",
          "name": "tokenId",
          "type": "uint256"
        }
      ],
      "name": "ownerOf",
      "outputs": [
        {
          "internalType": "address",
          "name": "",
          "type": "address"
        }
      ],
      "stateMutability": "view",
      "type": "function"
    },
    {
      "inputs": [
        {
          "internalType": "uint256",
          "name": "tokenId",
          "type": "uint256"
        }
      ],
      "name": "purchaseNFT",
      "outputs": [],
      "stateMutability": "payable",
      "type": "function"
    },
    {
      "inputs": [],
      "name": "renounceOwnership",
      "outputs": [],
      "stateMutability": "nonpayable",
      "type": "function"
    },
    {
      "inputs": [
        {
          "internalType": "address",
          "name": "from",
          "type": "address"
        },
        {
          "internalType": "address",
          "name": "to",
          "type": "address"
        },
        {
          "internalType": "uint256",
          "name": "tokenId",
          "type": "uint256"
        }
      ],
      "name": "safeTransferFrom",
      "outputs": [],
      "stateMutability": "nonpayable",
      "type": "function"
    },
    {
      "inputs": [
        {
          "internalType": "address",
          "name": "from",
          "type": "address"
        },
        {
          "internalType": "address",
          "name": "to",
          "type": "address"
        },
        {
          "internalType": "uint256",
          "name": "tokenId",
          "type": "uint256"
        },
        {
          "internalType": "bytes",
          "name": "data",
          "type": "bytes"
        }
      ],
      "name": "safeTransferFrom",
      "outputs": [],
      "stateMutability": "nonpayable",
      "type": "function"
    },
    {
      "inputs": [
        {
          "internalType": "address",
          "name": "operator",
          "type": "address"
        },
        {
          "internalType": "bool",
          "name": "approved",
          "type": "bool"
        }
      ],
      "name": "setApprovalForAll",
      "outputs": [],
      "stateMutability": "nonpayable",
      "type": "function"
    },
    {
      "inputs": [
        {
          "internalType": "bytes4",
          "name": "interfaceId",
          "type": "bytes4"
        }
      ],
      "name": "supportsInterface",
      "outputs": [
        {
          "internalType": "bool",
          "name": "",
          "type": "bool"
        }
      ],
      "stateMutability": "view",
      "type": "function"
    },
    {
      "inputs": [],
      "name": "symbol",
      "outputs": [
        {
          "internalType": "string",
          "name": "",
          "type": "string"
        }
      ],
      "stateMutability": "view",
      "type": "function"
    },
    {
      "inputs": [
        {
          "internalType": "uint256",
          "name": "tokenId",
          "type": "uint256"
        }
      ],
      "name": "tokenURI",
      "outputs": [
        {
          "internalType": "string",
          "name": "",
          "type": "string"
        }
      ],
      "stateMutability": "view",
      "type": "function"
    },
    {
      "inputs": [
        {
          "internalType": "address",
          "name": "from",
          "type": "address"
        },
        {
          "internalType": "address",
          "name": "to",
          "type": "address"
        },
        {
          "internalType": "uint256",
          "name": "tokenId",
          "type": "uint256"
        }
      ],
      "name": "transferFrom",
      "outputs": [],
      "stateMutability": "nonpayable",
      "type": "function"
    },
    {
      "inputs": [
        {
          "internalType": "address",
          "name": "newOwner",
          "type": "address"
        }
      ],
      "name": "transferOwnership",
      "outputs": [],
      "stateMutability": "nonpayable",
      "type": "function"
    },
    {
      "inputs": [],
      "name": "withdrawFunds",
      "outputs": [],
      "stateMutability": "nonpayable",
      "type": "function"
    }
  ],
  "bytecode": "0x60806040523480156200001157600080fd5b506040518060400160405280600e81526020017f417263686976652773204e4654730000000000000000000000000000000000008152506040518060400160405280600481526020017f414e46540000000000000000000000000000000000000000000000000000000081525081600090816200008f919062000412565b508060019081620000a1919062000412565b505050620000c4620000b8620000ca60201b60201c565b620000d260201b60201c565b620004f9565b600033905090565b6000600760009054906101000a900473ffffffffffffffffffffffffffffffffffffffff16905081600760006101000a81548173ffffffffffffffffffffffffffffffffffffffff021916908373ffffffffffffffffffffffffffffffffffffffff1602179055508173ffffffffffffffffffffffffffffffffffffffff168173ffffffffffffffffffffffffffffffffffffffff167f8be0079c531659141344cd1fd0a4f28419497f9722a3daafe3b4186f6b6457e060405160405180910390a35050565b600081519050919050565b7f4e487b7100000000000000000000000000000000000000000000000000000000600052604160045260246000fd5b7f4e487b7100000000000000000000000000000000000000000000000000000000600052602260045260246000fd5b600060028204905060018216806200021a57607f821691505b60208210810362000230576200022f620001d2565b5b50919050565b60008190508160005260206000209050919050565b60006020601f8301049050919050565b600082821b905092915050565b6000600883026200029a7fffffffffffffffffffffffffffffffffffffffffffffffffffffffffffffffff826200025b565b620002a686836200025b565b95508019841693508086168417925050509392505050565b6000819050919050565b6000819050919050565b6000620002f3620002ed620002e784620002be565b620002c8565b620002be565b9050919050565b6000819050919050565b6200030f83620002d2565b620003276200031e82620002fa565b84845462000268565b825550505050565b600090565b6200033e6200032f565b6200034b81848462000304565b505050565b5b8181101562000373576200036760008262000334565b60018101905062000351565b5050565b601f821115620003c2576200038c8162000236565b62000397846200024b565b81016020851015620003a7578190505b620003bf620003b6856200024b565b83018262000350565b50505b505050565b600082821c905092915050565b6000620003e760001984600802620003c7565b1980831691505092915050565b6000620004028383620003d4565b9150826002028217905092915050565b6200041d8262000198565b67ffffffffffffffff811115620004395762000438620001a3565b5b62000445825462000201565b6200045282828562000377565b600060209050601f8311600181146200048a576000841562000475578287015190505b620004818582620003f4565b865550620004f1565b601f1984166200049a8662000236565b60005b82811015620004c4578489015182556001820191506020850194506020810190506200049d565b86831015620004e45784890151620004e0601f891682620003d4565b8355505b6001600288020188555050505b505050505050565b613dba80620005096000396000f3fe60806040526004361061012a5760003560e01c806370a08231116100ab578063a22cb4651161006f578063a22cb465146103bb578063b88d4fde146103e4578063c87b56dd1461040d578063da2ed03e1461044a578063e985e9c514610473578063f2fde38b146104b05761012a565b806370a08231146102e8578063715018a6146103255780638da5cb5b1461033c57806394383f141461036757806395d89b41146103905761012a565b806323b872dd116100f257806323b872dd1461021957806324600fc314610242578063305a67a81461025957806342842e0e146102825780636352211e146102ab5761012a565b806301ffc9a71461012f57806306fdde031461016c578063081812fc14610197578063095ea7b3146101d4578063150bde03146101fd575b600080fd5b34801561013b57600080fd5b50610156600480360381019061015191906125c0565b6104d9565b6040516101639190612608565b60405180910390f35b34801561017857600080fd5b506101816105bb565b60405161018e91906126b3565b60405180910390f35b3480156101a357600080fd5b506101be60048036038101906101b9919061270b565b61064d565b6040516101cb9190612779565b60405180910390f35b3480156101e057600080fd5b506101fb60048036038101906101f691906127c0565b610693565b005b6102176004803603810190610212919061270b565b6107aa565b005b34801561022557600080fd5b50610240600480360381019061023b9190612800565b6109e8565b005b34801561024e57600080fd5b50610257610a48565b005b34801561026557600080fd5b50610280600480360381019061027b919061270b565b610ae2565b005b34801561028e57600080fd5b506102a960048036038101906102a49190612800565b610cd7565b005b3480156102b757600080fd5b506102d260048036038101906102cd919061270b565b610cf7565b6040516102df9190612779565b60405180910390f35b3480156102f457600080fd5b5061030f600480360381019061030a9190612853565b610d7d565b60405161031c919061288f565b60405180910390f35b34801561033157600080fd5b5061033a610e34565b005b34801561034857600080fd5b50610351610e48565b60405161035e9190612779565b60405180910390f35b34801561037357600080fd5b5061038e600480360381019061038991906128aa565b610e72565b005b34801561039c57600080fd5b506103a5610f9d565b6040516103b291906126b3565b60405180910390f35b3480156103c757600080fd5b506103e260048036038101906103dd9190612916565b61102f565b005b3480156103f057600080fd5b5061040b60048036038101906104069190612a8b565b611045565b005b34801561041957600080fd5b50610434600480360381019061042f919061270b565b6110a7565b60405161044191906126b3565b60405180910390f35b34801561045657600080fd5b50610471600480360381019061046c9190612b6e565b6111b9565b005b34801561047f57600080fd5b5061049a60048036038101906104959190612bbb565b611271565b6040516104a79190612608565b60405180910390f35b3480156104bc57600080fd5b506104d760048036038101906104d29190612853565b611305565b005b60007f80ac58cd000000000000000000000000000000000000000000000000000000007bffffffffffffffffffffffffffffffffffffffffffffffffffffffff1916827bffffffffffffffffffffffffffffffffffffffffffffffffffffffff191614806105a457507f5b5e139f000000000000000000000000000000000000000000000000000000007bffffffffffffffffffffffffffffffffffffffffffffffffffffffff1916827bffffffffffffffffffffffffffffffffffffffffffffffffffffffff1916145b806105b457506105b382611388565b5b9050919050565b6060600080546105ca90612c2a565b80601f01602080910402602001604051908101604052809291908181526020018280546105f690612c2a565b80156106435780601f1061061857610100808354040283529160200191610643565b820191906000526020600020905b81548152906001019060200180831161062657829003601f168201915b5050505050905090565b6000610658826113f2565b6004600083815260200190815260200160002060009054906101000a900473ffffffffffffffffffffffffffffffffffffffff169050919050565b600061069e82610cf7565b90508073ffffffffffffffffffffffffffffffffffffffff168373ffffffffffffffffffffffffffffffffffffffff160361070e576040517f08c379a000000000000000000000000000000000000000000000000000000000815260040161070590612ccd565b60405180910390fd5b8073ffffffffffffffffffffffffffffffffffffffff1661072d61143d565b73ffffffffffffffffffffffffffffffffffffffff16148061075c575061075b8161075661143d565b611271565b5b61079b576040517f08c379a000000000000000000000000000000000000000000000000000000000815260040161079290612d5f565b60405180910390fd5b6107a58383611445565b505050565b600060096000838152602001908152602001600020604051806040016040529081600082015481526020016001820160009054906101000a900473ffffffffffffffffffffffffffffffffffffffff1673ffffffffffffffffffffffffffffffffffffffff1673ffffffffffffffffffffffffffffffffffffffff168152505090506000816000015111610873576040517f08c379a000000000000000000000000000000000000000000000000000000000815260040161086a90612df1565b60405180910390fd5b806000015134146108b9576040517f08c379a00000000000000000000000000000000000000000000000000000000081526004016108b090612e5d565b60405180910390fd5b3073ffffffffffffffffffffffffffffffffffffffff166323b872dd3033856040518463ffffffff1660e01b81526004016108f693929190612e7d565b600060405180830381600087803b15801561091057600080fd5b505af1158015610924573d6000803e3d6000fd5b50505050610931826114fe565b806020015173ffffffffffffffffffffffffffffffffffffffff166108fc61097a606461096c6062866000015161157390919063ffffffff16565b61158990919063ffffffff16565b9081150290604051600060405180830381858888f193505050501580156109a5573d6000803e3d6000fd5b507f705332a8918666802fc1504f63ff1f002a5f6cedd30d59ad7ae0b5281aeb8dca82303360006040516109dc9493929190612f1f565b60405180910390a15050565b6109f96109f361143d565b8261159f565b610a38576040517f08c379a0000000000000000000000000000000000000000000000000000000008152600401610a2f90612fe9565b60405180910390fd5b610a43838383611634565b505050565b610a5061192d565b600047905060008111610a98576040517f08c379a0000000000000000000000000000000000000000000000000000000008152600401610a8f90613055565b60405180910390fd5b3373ffffffffffffffffffffffffffffffffffffffff166108fc829081150290604051600060405180830381858888f19350505050158015610ade573d6000803e3d6000fd5b5050565b600060096000838152602001908152602001600020604051806040016040529081600082015481526020016001820160009054906101000a900473ffffffffffffffffffffffffffffffffffffffff1673ffffffffffffffffffffffffffffffffffffffff1673ffffffffffffffffffffffffffffffffffffffff168152505090506000816000015111610bab576040517f08c379a0000000000000000000000000000000000000000000000000000000008152600401610ba2906130e7565b60405180910390fd5b3373ffffffffffffffffffffffffffffffffffffffff16816020015173ffffffffffffffffffffffffffffffffffffffff1614610c1d576040517f08c379a0000000000000000000000000000000000000000000000000000000008152600401610c1490613179565b60405180910390fd5b3073ffffffffffffffffffffffffffffffffffffffff166323b872dd3033856040518463ffffffff1660e01b8152600401610c5a93929190612e7d565b600060405180830381600087803b158015610c7457600080fd5b505af1158015610c88573d6000803e3d6000fd5b50505050610c95826114fe565b7f705332a8918666802fc1504f63ff1f002a5f6cedd30d59ad7ae0b5281aeb8dca8230336000604051610ccb9493929190612f1f565b60405180910390a15050565b610cf283838360405180602001604052806000815250611045565b505050565b600080610d03836119ab565b9050600073ffffffffffffffffffffffffffffffffffffffff168173ffffffffffffffffffffffffffffffffffffffff1603610d74576040517f08c379a0000000000000000000000000000000000000000000000000000000008152600401610d6b906131e5565b60405180910390fd5b80915050919050565b60008073ffffffffffffffffffffffffffffffffffffffff168273ffffffffffffffffffffffffffffffffffffffff1603610ded576040517f08c379a0000000000000000000000000000000000000000000000000000000008152600401610de490613277565b60405180910390fd5b600360008373ffffffffffffffffffffffffffffffffffffffff1673ffffffffffffffffffffffffffffffffffffffff168152602001908152602001600020549050919050565b610e3c61192d565b610e4660006119e8565b565b6000600760009054906101000a900473ffffffffffffffffffffffffffffffffffffffff16905090565b60008111610eb5576040517f08c379a0000000000000000000000000000000000000000000000000000000008152600401610eac90613309565b60405180910390fd5b610ebf3083610693565b610eca3330846109e8565b60405180604001604052808281526020013373ffffffffffffffffffffffffffffffffffffffff16815250600960008481526020019081526020016000206000820151816000015560208201518160010160006101000a81548173ffffffffffffffffffffffffffffffffffffffff021916908373ffffffffffffffffffffffffffffffffffffffff1602179055509050507f705332a8918666802fc1504f63ff1f002a5f6cedd30d59ad7ae0b5281aeb8dca82333084604051610f919493929190613329565b60405180910390a15050565b606060018054610fac90612c2a565b80601f0160208091040260200160405190810160405280929190818152602001828054610fd890612c2a565b80156110255780601f10610ffa57610100808354040283529160200191611025565b820191906000526020600020905b81548152906001019060200180831161100857829003601f168201915b5050505050905090565b61104161103a61143d565b8383611aae565b5050565b61105661105061143d565b8361159f565b611095576040517f08c379a000000000000000000000000000000000000000000000000000000000815260040161108c90612fe9565b60405180910390fd5b6110a184848484611c1a565b50505050565b60606110b2826113f2565b60006006600084815260200190815260200160002080546110d290612c2a565b80601f01602080910402602001604051908101604052809291908181526020018280546110fe90612c2a565b801561114b5780601f106111205761010080835404028352916020019161114b565b820191906000526020600020905b81548152906001019060200180831161112e57829003601f168201915b50505050509050600061115c611c76565b905060008151036111715781925050506111b4565b6000825111156111a657808260405160200161118e9291906133bd565b604051602081830303815290604052925050506111b4565b6111af84611c8d565b925050505b919050565b6111c36008611cf5565b60006111cf6008611d0b565b90506111db3382611d19565b6112298184848080601f016020809104026020016040519081016040528093929190818152602001838380828437600081840152601f19601f82011690508083019250505050505050611d37565b7f705332a8918666802fc1504f63ff1f002a5f6cedd30d59ad7ae0b5281aeb8dca81600033868660006040516112649695949392919061340e565b60405180910390a1505050565b6000600560008473ffffffffffffffffffffffffffffffffffffffff1673ffffffffffffffffffffffffffffffffffffffff16815260200190815260200160002060008373ffffffffffffffffffffffffffffffffffffffff1673ffffffffffffffffffffffffffffffffffffffff16815260200190815260200160002060009054906101000a900460ff16905092915050565b61130d61192d565b600073ffffffffffffffffffffffffffffffffffffffff168173ffffffffffffffffffffffffffffffffffffffff160361137c576040517f08c379a0000000000000000000000000000000000000000000000000000000008152600401611373906134dc565b60405180910390fd5b611385816119e8565b50565b60007f01ffc9a7000000000000000000000000000000000000000000000000000000007bffffffffffffffffffffffffffffffffffffffffffffffffffffffff1916827bffffffffffffffffffffffffffffffffffffffffffffffffffffffff1916149050919050565b6113fb81611da4565b61143a576040517f08c379a0000000000000000000000000000000000000000000000000000000008152600401611431906131e5565b60405180910390fd5b50565b600033905090565b816004600083815260200190815260200160002060006101000a81548173ffffffffffffffffffffffffffffffffffffffff021916908373ffffffffffffffffffffffffffffffffffffffff160217905550808273ffffffffffffffffffffffffffffffffffffffff166114b883610cf7565b73ffffffffffffffffffffffffffffffffffffffff167f8c5be1e5ebec7d5bd14f71427d1e84f3dd0314c0f7b2291e5b200ac8c7c3b92560405160405180910390a45050565b6000600960008381526020019081526020016000206000018190555060006009600083815260200190815260200160002060010160006101000a81548173ffffffffffffffffffffffffffffffffffffffff021916908373ffffffffffffffffffffffffffffffffffffffff16021790555050565b60008183611581919061352b565b905092915050565b60008183611597919061359c565b905092915050565b6000806115ab83610cf7565b90508073ffffffffffffffffffffffffffffffffffffffff168473ffffffffffffffffffffffffffffffffffffffff1614806115ed57506115ec8185611271565b5b8061162b57508373ffffffffffffffffffffffffffffffffffffffff166116138461064d565b73ffffffffffffffffffffffffffffffffffffffff16145b91505092915050565b8273ffffffffffffffffffffffffffffffffffffffff1661165482610cf7565b73ffffffffffffffffffffffffffffffffffffffff16146116aa576040517f08c379a00000000000000000000000000000000000000000000000000000000081526004016116a19061363f565b60405180910390fd5b600073ffffffffffffffffffffffffffffffffffffffff168273ffffffffffffffffffffffffffffffffffffffff1603611719576040517f08c379a0000000000000000000000000000000000000000000000000000000008152600401611710906136d1565b60405180910390fd5b6117268383836001611de5565b8273ffffffffffffffffffffffffffffffffffffffff1661174682610cf7565b73ffffffffffffffffffffffffffffffffffffffff161461179c576040517f08c379a00000000000000000000000000000000000000000000000000000000081526004016117939061363f565b60405180910390fd5b6004600082815260200190815260200160002060006101000a81549073ffffffffffffffffffffffffffffffffffffffff02191690556001600360008573ffffffffffffffffffffffffffffffffffffffff1673ffffffffffffffffffffffffffffffffffffffff168152602001908152602001600020600082825403925050819055506001600360008473ffffffffffffffffffffffffffffffffffffffff1673ffffffffffffffffffffffffffffffffffffffff16815260200190815260200160002060008282540192505081905550816002600083815260200190815260200160002060006101000a81548173ffffffffffffffffffffffffffffffffffffffff021916908373ffffffffffffffffffffffffffffffffffffffff160217905550808273ffffffffffffffffffffffffffffffffffffffff168473ffffffffffffffffffffffffffffffffffffffff167fddf252ad1be2c89b69c2b068fc378daa952ba7f163c4a11628f55a4df523b3ef60405160405180910390a46119288383836001611f0b565b505050565b61193561143d565b73ffffffffffffffffffffffffffffffffffffffff16611953610e48565b73ffffffffffffffffffffffffffffffffffffffff16146119a9576040517f08c379a00000000000000000000000000000000000000000000000000000000081526004016119a09061373d565b60405180910390fd5b565b60006002600083815260200190815260200160002060009054906101000a900473ffffffffffffffffffffffffffffffffffffffff169050919050565b6000600760009054906101000a900473ffffffffffffffffffffffffffffffffffffffff16905081600760006101000a81548173ffffffffffffffffffffffffffffffffffffffff021916908373ffffffffffffffffffffffffffffffffffffffff1602179055508173ffffffffffffffffffffffffffffffffffffffff168173ffffffffffffffffffffffffffffffffffffffff167f8be0079c531659141344cd1fd0a4f28419497f9722a3daafe3b4186f6b6457e060405160405180910390a35050565b8173ffffffffffffffffffffffffffffffffffffffff168373ffffffffffffffffffffffffffffffffffffffff1603611b1c576040517f08c379a0000000000000000000000000000000000000000000000000000000008152600401611b13906137a9565b60405180910390fd5b80600560008573ffffffffffffffffffffffffffffffffffffffff1673ffffffffffffffffffffffffffffffffffffffff16815260200190815260200160002060008473ffffffffffffffffffffffffffffffffffffffff1673ffffffffffffffffffffffffffffffffffffffff16815260200190815260200160002060006101000a81548160ff0219169083151502179055508173ffffffffffffffffffffffffffffffffffffffff168373ffffffffffffffffffffffffffffffffffffffff167f17307eab39ab6107e8899845ad3d59bd9653f200f220920489ca2b5937696c3183604051611c0d9190612608565b60405180910390a3505050565b611c25848484611634565b611c3184848484611f11565b611c70576040517f08c379a0000000000000000000000000000000000000000000000000000000008152600401611c679061383b565b60405180910390fd5b50505050565b606060405180602001604052806000815250905090565b6060611c98826113f2565b6000611ca2611c76565b90506000815111611cc25760405180602001604052806000815250611ced565b80611ccc84612098565b604051602001611cdd9291906133bd565b6040516020818303038152906040525b915050919050565b6001816000016000828254019250508190555050565b600081600001549050919050565b611d33828260405180602001604052806000815250612166565b5050565b611d4082611da4565b611d7f576040517f08c379a0000000000000000000000000000000000000000000000000000000008152600401611d76906138cd565b60405180910390fd5b80600660008481526020019081526020016000209081611d9f9190613a8f565b505050565b60008073ffffffffffffffffffffffffffffffffffffffff16611dc6836119ab565b73ffffffffffffffffffffffffffffffffffffffff1614159050919050565b6001811115611f0557600073ffffffffffffffffffffffffffffffffffffffff168473ffffffffffffffffffffffffffffffffffffffff1614611e795780600360008673ffffffffffffffffffffffffffffffffffffffff1673ffffffffffffffffffffffffffffffffffffffff1681526020019081526020016000206000828254611e719190613b61565b925050819055505b600073ffffffffffffffffffffffffffffffffffffffff168373ffffffffffffffffffffffffffffffffffffffff1614611f045780600360008573ffffffffffffffffffffffffffffffffffffffff1673ffffffffffffffffffffffffffffffffffffffff1681526020019081526020016000206000828254611efc9190613b95565b925050819055505b5b50505050565b50505050565b6000611f328473ffffffffffffffffffffffffffffffffffffffff166121c1565b1561208b578373ffffffffffffffffffffffffffffffffffffffff1663150b7a02611f5b61143d565b8786866040518563ffffffff1660e01b8152600401611f7d9493929190613c1e565b6020604051808303816000875af1925050508015611fb957506040513d601f19601f82011682018060405250810190611fb69190613c7f565b60015b61203b573d8060008114611fe9576040519150601f19603f3d011682016040523d82523d6000602084013e611fee565b606091505b506000815103612033576040517f08c379a000000000000000000000000000000000000000000000000000000000815260040161202a9061383b565b60405180910390fd5b805181602001fd5b63150b7a0260e01b7bffffffffffffffffffffffffffffffffffffffffffffffffffffffff1916817bffffffffffffffffffffffffffffffffffffffffffffffffffffffff191614915050612090565b600190505b949350505050565b6060600060016120a7846121e4565b01905060008167ffffffffffffffff8111156120c6576120c5612960565b5b6040519080825280601f01601f1916602001820160405280156120f85781602001600182028036833780820191505090505b509050600082602001820190505b60011561215b578080600190039150507f3031323334353637383961626364656600000000000000000000000000000000600a86061a8153600a858161214f5761214e61356d565b5b04945060008503612106575b819350505050919050565b6121708383612337565b61217d6000848484611f11565b6121bc576040517f08c379a00000000000000000000000000000000000000000000000000000000081526004016121b39061383b565b60405180910390fd5b505050565b6000808273ffffffffffffffffffffffffffffffffffffffff163b119050919050565b600080600090507a184f03e93ff9f4daa797ed6e38ed64bf6a1f0100000000000000008310612242577a184f03e93ff9f4daa797ed6e38ed64bf6a1f01000000000000000083816122385761223761356d565b5b0492506040810190505b6d04ee2d6d415b85acef8100000000831061227f576d04ee2d6d415b85acef810000000083816122755761227461356d565b5b0492506020810190505b662386f26fc1000083106122ae57662386f26fc1000083816122a4576122a361356d565b5b0492506010810190505b6305f5e10083106122d7576305f5e10083816122cd576122cc61356d565b5b0492506008810190505b61271083106122fc5761271083816122f2576122f161356d565b5b0492506004810190505b6064831061231f57606483816123155761231461356d565b5b0492506002810190505b600a831061232e576001810190505b80915050919050565b600073ffffffffffffffffffffffffffffffffffffffff168273ffffffffffffffffffffffffffffffffffffffff16036123a6576040517f08c379a000000000000000000000000000000000000000000000000000000000815260040161239d90613cf8565b60405180910390fd5b6123af81611da4565b156123ef576040517f08c379a00000000000000000000000000000000000000000000000000000000081526004016123e690613d64565b60405180910390fd5b6123fd600083836001611de5565b61240681611da4565b15612446576040517f08c379a000000000000000000000000000000000000000000000000000000000815260040161243d90613d64565b60405180910390fd5b6001600360008473ffffffffffffffffffffffffffffffffffffffff1673ffffffffffffffffffffffffffffffffffffffff16815260200190815260200160002060008282540192505081905550816002600083815260200190815260200160002060006101000a81548173ffffffffffffffffffffffffffffffffffffffff021916908373ffffffffffffffffffffffffffffffffffffffff160217905550808273ffffffffffffffffffffffffffffffffffffffff16600073ffffffffffffffffffffffffffffffffffffffff167fddf252ad1be2c89b69c2b068fc378daa952ba7f163c4a11628f55a4df523b3ef60405160405180910390a4612550600083836001611f0b565b5050565b6000604051905090565b600080fd5b600080fd5b60007fffffffff0000000000000000000000000000000000000000000000000000000082169050919050565b61259d81612568565b81146125a857600080fd5b50565b6000813590506125ba81612594565b92915050565b6000602082840312156125d6576125d561255e565b5b60006125e4848285016125ab565b91505092915050565b60008115159050919050565b612602816125ed565b82525050565b600060208201905061261d60008301846125f9565b92915050565b600081519050919050565b600082825260208201905092915050565b60005b8381101561265d578082015181840152602081019050612642565b60008484015250505050565b6000601f19601f8301169050919050565b600061268582612623565b61268f818561262e565b935061269f81856020860161263f565b6126a881612669565b840191505092915050565b600060208201905081810360008301526126cd818461267a565b905092915050565b6000819050919050565b6126e8816126d5565b81146126f357600080fd5b50565b600081359050612705816126df565b92915050565b6000602082840312156127215761272061255e565b5b600061272f848285016126f6565b91505092915050565b600073ffffffffffffffffffffffffffffffffffffffff82169050919050565b600061276382612738565b9050919050565b61277381612758565b82525050565b600060208201905061278e600083018461276a565b92915050565b61279d81612758565b81146127a857600080fd5b50565b6000813590506127ba81612794565b92915050565b600080604083850312156127d7576127d661255e565b5b60006127e5858286016127ab565b92505060206127f6858286016126f6565b9150509250929050565b6000806000606084860312156128195761281861255e565b5b6000612827868287016127ab565b9350506020612838868287016127ab565b9250506040612849868287016126f6565b9150509250925092565b6000602082840312156128695761286861255e565b5b6000612877848285016127ab565b91505092915050565b612889816126d5565b82525050565b60006020820190506128a46000830184612880565b92915050565b600080604083850312156128c1576128c061255e565b5b60006128cf858286016126f6565b92505060206128e0858286016126f6565b9150509250929050565b6128f3816125ed565b81146128fe57600080fd5b50565b600081359050612910816128ea565b92915050565b6000806040838503121561292d5761292c61255e565b5b600061293b858286016127ab565b925050602061294c85828601612901565b9150509250929050565b600080fd5b600080fd5b7f4e487b7100000000000000000000000000000000000000000000000000000000600052604160045260246000fd5b61299882612669565b810181811067ffffffffffffffff821117156129b7576129b6612960565b5b80604052505050565b60006129ca612554565b90506129d6828261298f565b919050565b600067ffffffffffffffff8211156129f6576129f5612960565b5b6129ff82612669565b9050602081019050919050565b82818337600083830152505050565b6000612a2e612a29846129db565b6129c0565b905082815260208101848484011115612a4a57612a4961295b565b5b612a55848285612a0c565b509392505050565b600082601f830112612a7257612a71612956565b5b8135612a82848260208601612a1b565b91505092915050565b60008060008060808587031215612aa557612aa461255e565b5b6000612ab3878288016127ab565b9450506020612ac4878288016127ab565b9350506040612ad5878288016126f6565b925050606085013567ffffffffffffffff811115612af657612af5612563565b5b612b0287828801612a5d565b91505092959194509250565b600080fd5b600080fd5b60008083601f840112612b2e57612b2d612956565b5b8235905067ffffffffffffffff811115612b4b57612b4a612b0e565b5b602083019150836001820283011115612b6757612b66612b13565b5b9250929050565b60008060208385031215612b8557612b8461255e565b5b600083013567ffffffffffffffff811115612ba357612ba2612563565b5b612baf85828601612b18565b92509250509250929050565b60008060408385031215612bd257612bd161255e565b5b6000612be0858286016127ab565b9250506020612bf1858286016127ab565b9150509250929050565b7f4e487b7100000000000000000000000000000000000000000000000000000000600052602260045260246000fd5b60006002820490506001821680612c4257607f821691505b602082108103612c5557612c54612bfb565b5b50919050565b7f4552433732313a20617070726f76616c20746f2063757272656e74206f776e6560008201527f7200000000000000000000000000000000000000000000000000000000000000602082015250565b6000612cb760218361262e565b9150612cc282612c5b565b604082019050919050565b60006020820190508181036000830152612ce681612caa565b9050919050565b7f4552433732313a20617070726f76652063616c6c6572206973206e6f7420746f60008201527f6b656e206f776e6572206f7220617070726f76656420666f7220616c6c000000602082015250565b6000612d49603d8361262e565b9150612d5482612ced565b604082019050919050565b60006020820190508181036000830152612d7881612d3c565b9050919050565b7f417263686976654d61726b65743a204e4654206973206e6f74206c697374656460008201527f20666f722073616c650000000000000000000000000000000000000000000000602082015250565b6000612ddb60298361262e565b9150612de682612d7f565b604082019050919050565b60006020820190508181036000830152612e0a81612dce565b9050919050565b7f417263686976654d61726b65743a20496e636f72726563742050726963650000600082015250565b6000612e47601e8361262e565b9150612e5282612e11565b602082019050919050565b60006020820190508181036000830152612e7681612e3a565b9050919050565b6000606082019050612e92600083018661276a565b612e9f602083018561276a565b612eac6040830184612880565b949350505050565b50565b6000612ec460008361262e565b9150612ecf82612eb4565b600082019050919050565b6000819050919050565b6000819050919050565b6000612f09612f04612eff84612eda565b612ee4565b6126d5565b9050919050565b612f1981612eee565b82525050565b600060a082019050612f346000830187612880565b612f41602083018661276a565b612f4e604083018561276a565b8181036060830152612f5f81612eb7565b9050612f6e6080830184612f10565b95945050505050565b7f4552433732313a2063616c6c6572206973206e6f7420746f6b656e206f776e6560008201527f72206f7220617070726f76656400000000000000000000000000000000000000602082015250565b6000612fd3602d8361262e565b9150612fde82612f77565b604082019050919050565b6000602082019050818103600083015261300281612fc6565b9050919050565b7f417263686976654d61726b65743a2062616c616e6365206973207a65726f0000600082015250565b600061303f601e8361262e565b915061304a82613009565b602082019050919050565b6000602082019050818103600083015261306e81613032565b9050919050565b7f417276686976654d61726b65743a204e4654206973206e6f74206c697374656460008201527f20666f722073616c650000000000000000000000000000000000000000000000602082015250565b60006130d160298361262e565b91506130dc82613075565b604082019050919050565b60006020820190508181036000830152613100816130c4565b9050919050565b7f417263686976654d61726b65743a20596f7520617265206e6f7420746865207360008201527f656c6c6572000000000000000000000000000000000000000000000000000000602082015250565b600061316360258361262e565b915061316e82613107565b604082019050919050565b6000602082019050818103600083015261319281613156565b9050919050565b7f4552433732313a20696e76616c696420746f6b656e2049440000000000000000600082015250565b60006131cf60188361262e565b91506131da82613199565b602082019050919050565b600060208201905081810360008301526131fe816131c2565b9050919050565b7f4552433732313a2061646472657373207a65726f206973206e6f74206120766160008201527f6c6964206f776e65720000000000000000000000000000000000000000000000602082015250565b600061326160298361262e565b915061326c82613205565b604082019050919050565b6000602082019050818103600083015261329081613254565b9050919050565b7f417263686976654d61726b65743a205072696365206d7573742062652067726560008201527f61746572207468616e2030000000000000000000000000000000000000000000602082015250565b60006132f3602b8361262e565b91506132fe82613297565b604082019050919050565b60006020820190508181036000830152613322816132e6565b9050919050565b600060a08201905061333e6000830187612880565b61334b602083018661276a565b613358604083018561276a565b818103606083015261336981612eb7565b90506133786080830184612880565b95945050505050565b600081905092915050565b600061339782612623565b6133a18185613381565b93506133b181856020860161263f565b80840191505092915050565b60006133c9828561338c565b91506133d5828461338c565b91508190509392505050565b60006133ed838561262e565b93506133fa838584612a0c565b61340383612669565b840190509392505050565b600060a0820190506134236000830189612880565b613430602083018861276a565b61343d604083018761276a565b81810360608301526134508185876133e1565b905061345f6080830184612f10565b979650505050505050565b7f4f776e61626c653a206e6577206f776e657220697320746865207a65726f206160008201527f6464726573730000000000000000000000000000000000000000000000000000602082015250565b60006134c660268361262e565b91506134d18261346a565b604082019050919050565b600060208201905081810360008301526134f5816134b9565b9050919050565b7f4e487b7100000000000000000000000000000000000000000000000000000000600052601160045260246000fd5b6000613536826126d5565b9150613541836126d5565b925082820261354f816126d5565b91508282048414831517613566576135656134fc565b5b5092915050565b7f4e487b7100000000000000000000000000000000000000000000000000000000600052601260045260246000fd5b60006135a7826126d5565b91506135b2836126d5565b9250826135c2576135c161356d565b5b828204905092915050565b7f4552433732313a207472616e736665722066726f6d20696e636f72726563742060008201527f6f776e6572000000000000000000000000000000000000000000000000000000602082015250565b600061362960258361262e565b9150613634826135cd565b604082019050919050565b600060208201905081810360008301526136588161361c565b9050919050565b7f4552433732313a207472616e7366657220746f20746865207a65726f2061646460008201527f7265737300000000000000000000000000000000000000000000000000000000602082015250565b60006136bb60248361262e565b91506136c68261365f565b604082019050919050565b600060208201905081810360008301526136ea816136ae565b9050919050565b7f4f776e61626c653a2063616c6c6572206973206e6f7420746865206f776e6572600082015250565b600061372760208361262e565b9150613732826136f1565b602082019050919050565b600060208201905081810360008301526137568161371a565b9050919050565b7f4552433732313a20617070726f766520746f2063616c6c657200000000000000600082015250565b600061379360198361262e565b915061379e8261375d565b602082019050919050565b600060208201905081810360008301526137c281613786565b9050919050565b7f4552433732313a207472616e7366657220746f206e6f6e20455243373231526560008201527f63656976657220696d706c656d656e7465720000000000000000000000000000602082015250565b600061382560328361262e565b9150613830826137c9565b604082019050919050565b6000602082019050818103600083015261385481613818565b9050919050565b7f45524337323155524953746f726167653a2055524920736574206f66206e6f6e60008201527f6578697374656e7420746f6b656e000000000000000000000000000000000000602082015250565b60006138b7602e8361262e565b91506138c28261385b565b604082019050919050565b600060208201905081810360008301526138e6816138aa565b9050919050565b60008190508160005260206000209050919050565b60006020601f8301049050919050565b600082821b905092915050565b60006008830261394f7fffffffffffffffffffffffffffffffffffffffffffffffffffffffffffffffff82613912565b6139598683613912565b95508019841693508086168417925050509392505050565b600061398c613987613982846126d5565b612ee4565b6126d5565b9050919050565b6000819050919050565b6139a683613971565b6139ba6139b282613993565b84845461391f565b825550505050565b600090565b6139cf6139c2565b6139da81848461399d565b505050565b5b818110156139fe576139f36000826139c7565b6001810190506139e0565b5050565b601f821115613a4357613a14816138ed565b613a1d84613902565b81016020851015613a2c578190505b613a40613a3885613902565b8301826139df565b50505b505050565b600082821c905092915050565b6000613a6660001984600802613a48565b1980831691505092915050565b6000613a7f8383613a55565b9150826002028217905092915050565b613a9882612623565b67ffffffffffffffff811115613ab157613ab0612960565b5b613abb8254612c2a565b613ac6828285613a02565b600060209050601f831160018114613af95760008415613ae7578287015190505b613af18582613a73565b865550613b59565b601f198416613b07866138ed565b60005b82811015613b2f57848901518255600182019150602085019450602081019050613b0a565b86831015613b4c5784890151613b48601f891682613a55565b8355505b6001600288020188555050505b505050505050565b6000613b6c826126d5565b9150613b77836126d5565b9250828203905081811115613b8f57613b8e6134fc565b5b92915050565b6000613ba0826126d5565b9150613bab836126d5565b9250828201905080821115613bc357613bc26134fc565b5b92915050565b600081519050919050565b600082825260208201905092915050565b6000613bf082613bc9565b613bfa8185613bd4565b9350613c0a81856020860161263f565b613c1381612669565b840191505092915050565b6000608082019050613c33600083018761276a565b613c40602083018661276a565b613c4d6040830185612880565b8181036060830152613c5f8184613be5565b905095945050505050565b600081519050613c7981612594565b92915050565b600060208284031215613c9557613c9461255e565b5b6000613ca384828501613c6a565b91505092915050565b7f4552433732313a206d696e7420746f20746865207a65726f2061646472657373600082015250565b6000613ce260208361262e565b9150613ced82613cac565b602082019050919050565b60006020820190508181036000830152613d1181613cd5565b9050919050565b7f4552433732313a20746f6b656e20616c7265616479206d696e74656400000000600082015250565b6000613d4e601c8361262e565b9150613d5982613d18565b602082019050919050565b60006020820190508181036000830152613d7d81613d41565b905091905056fea264697066735822122084036394a13a863e3d5bce719e6e2c465271c8aa8e94d3b9b9bc23294a15d5cc64736f6c63430008110033",
  "linkReferences": {},
  "deployedLinkReferences": {}
}